:020000040800F2
:10000000C02B002001010008DB1A0008B31500080E
:10001000D91A000825030008A11D000800000000EF
:10002000000000000000000000000000DF1A0008CF
:100030002703000800000000DD1A0008E11A00088C
:100040001B0100081B0100081B0100081B01000820
:100050001B0100081B010008290300081B01000800
:100060001B0100081B0100081B0100081B01000800
:100070001B0100081B0100081B0100081B010008F0
:100080001B0100081B0100081B0100081B010008E0
:100090001B0100081B0100081B0100081B010008D0
:1000A0001B0100081B0100081B0100081B010008C0
:1000B0001B0100081B010008000000001B010008D4
:1000C0001B01000800000000000000001B010008E8
:1000D00000000000951D00081B0100080000000042
:1000E0001B0100081B0100081B010008DFF80CD0F1
:1000F00000F006F900480047711F0008C02B0020DF
:100100000648804706480047FEE7FEE7FEE7FEE7B1
:10011000FEE7FEE7FEE7FEE7FEE7FEE7431B00081B
:10012000ED000008D2B201E000F8012B491EFBD21D
:1001300070470022F6E710B513460A4604461946F2
:10014000FFF7F0FF204610BD80EA010210B502F073
:100150000043400022D04A001FD0010E01EB126183
:10016000C0F35600C2F3560240F4000042F400020D
:10017000A0FB022000047F39140400D0401C50EA88
:10018000124001D44000491EC2B20C0604EBD0104C
:10019000401C4008802A02D003E0002010BD20F05F
:1001A0000100002900DA0020184310BD30B480EAB5
:1001B000010202F0004530F0004221F0004013D06F
:1001C00090B1C30DD40DC2F31601C0F31600E41AAA
:1001D00041F4000140F400027D34914201D3641CDB
:1001E00000E04900002C02DA30BC002070474FF4D8
:1001F00000000023914201D3891A034340084FEACB
:100200004101F7D151B1914202D14FF0004105E0D7
:1002100002D24FF0010101E06FF0010103EBC45085
:10022000284430BC00F034B896230022114600F078
:1002300038B800F0004220F00040C10DC0F31600B5
:1002400040F400007F2901DA00207047962903DC82
:10025000C1F19601C84001E096398840002AF4D0E7
:100260004042704730B50B46014600202022012451
:1002700009E021FA02F59D4205D303FA02F5491B74
:1002800004FA02F52844151EA2F10102F1DC30BD8A
:100290000029A8BF7047401C490008BF20F001009A
:1002A000704710B4B0FA80FC00FA0CF050EA010478
:1002B00004BF10BC704749B1CCF1200421FA04F40A
:1002C00011FA0CF118BF012121430843A3EB0C01E3
:1002D000CB1D4FEA00614FEA102042BF002010BC46
:1002E000704700EBC35010440029A4BF10BC7047F6
:1002F000401C490008BF20F0010010BC70470000FE
:10030000064C074D06E0E06840F0010394E8070062
:1003100098471034AC42F6D3FFF7ECFE0C2A0008E5
:100320002C2A0008FEE77047012000F073B872B66F
:10033000FEE710B590F821100022022905D0042113
:10034000816380F82020012010BD01680B6823F034
:100350000E030B6001680B6823F001030B6090F83B
:100360004030C46B012101FA03F3636080F821106F
:1003700080F82020104610BD10B590F82110002400
:10038000022903D00421816301243DE001680A6849
:1003900022F00E020A6001680A6822F001020A6077
:1003A0001A4A0168914201D1012121E0174A143211
:1003B000914201D110211BE0144A2832914201D10F
:1003C000891515E0114A3C32914201D189140FE0A0
:1003D0000E4A5032914202D14FF4803108E00B4A6C
:1003E0006432914202D14FF4801101E04FF08071EC
:1003F000064A083A5160012180F82110002180F856
:100400002010416B01B18847204610BD0800024012
:1004100070470000044910B50A68024202D0086023
:10042000FFF7F6FF10BD0000140401402DE9F84F5E
:10043000DFF8B8910024A9F1040B23460F2709F136
:10044000040AABF1040EC9E00125A5402A40AA42E6
:100450007DD1674ED1F804C0ACEB0608B44532D06C
:1004600014DCBCF1030F3AD009DCBCF1000F2AD038
:10047000BCF1010F1CD0BCF1020F31D11DE0BCF169
:10048000110F17D0BCF1120F2AD119E0B8F5881F4F
:1004900019D006DCB8F5803F15D0B8F5801F1FD104
:1004A00011E0B8F5001F0ED0B8F5041F18D10AE00E
:1004B000CB6815E0CB681B1D12E0CB6808330FE05A
:1004C000CB680C330CE08B682BB1012B4FF0080389
:1004D00003D0456104E0042302E0056100E000234D
:1004E000FF2A01D8064601E000F104064FEA840520
:1004F00001D9A5F12005D6F8008007FA05FC28EA05
:100500000C0803FA05F548EA0508C6F800804D68AE
:10051000ED0062D5374DAE6946F00106AE61AD69BA
:1005200024F0030605F001050095334D06EB050C9C
:10053000DCF80850A607360F07FA06F825EA080582
:10054000DFF8B880404503D14FF0000817E044E0E1
:10055000DFF8AC80404502D14FF001080FE0DFF832
:10056000A480404502D14FF0020808E0DFF89880EF
:10057000404502D14FF0030801E04FF0040808FAAB
:1005800006F848EA0508CCF808804D68D9F80060FC
:10059000ED024D4601D5164300E096432E604D68AE
:1005A000DAF80060AD02554601D5164300E09643E7
:1005B0002E604D68DBF80060AD035D4601D5164343
:1005C00000E096432E604D68DEF80060ED0375464E
:1005D00001D5164300E096432E60641C0D682A4640
:1005E000E5407FF431AFBDE8F88F0000080401401A
:1005F00000001110001002400000014000080140FE
:10060000000C0140001001400014014080680840C7
:1006100000D001207047000001488068704700004A
:100620001000002090F83D007047000070B50400F5
:1006300025D094F83D00002520B984F83C50204690
:1006400000F078FA242084F83D002068016821F049
:10065000010101602068016841F4004101602068E7
:10066000016821F40041016000F0C0FB4D4A61685F
:10067000914201D84C4900E04C49884201D2012006
:1006800070BD4B492368B0FBF1F15E6826F03F0670
:100690000E435E606368934206D94FF496735943E4
:1006A0004FF47A73B1FBF3F12368491C1E6A26F0FC
:1006B0003F06314319626168914210D84900401EDB
:1006C000B0FBF1F2521CC2F30B02042A01D2042047
:1006D00022E0B0FBF1F0401CC0F30B001CE0A2686C
:1006E000F2B301EBC10303EB0116431EB3FBF6F3B8
:1006F0005B1C43F480431B0549D092B301EBC1025C
:1007000002EB0111401EB0FBF1F0401CC0F30B00E6
:1007100040F4804040F400402168CA694CF6FF7301
:100720009A431043C861D4E9071001432068026866
:1007300022F0C00211430160D4E9030101432068A3
:10074000826848F2FF339A4311438160D4E905017E
:1007500008432168CA6822F0FF021043C86001E024
:100760000EE016E02068016841F001010160256497
:10077000202084F83D00256384F83E50002070BDA1
:1007800001EB4106431EB3FBF6F35B1CB3E701200C
:10079000C2E701EB4101401EB0FBF1F0401CC0F389
:1007A0000B00B7E7A086010080841E0000093D0011
:1007B00040420F002DE9FF4F83B00025DDE910799D
:1007C0009A4693460446DDF848800095FFF724FFDB
:1007D000064694F83D0020287CD119230122854942
:1007E0002046009600F0FCFF0028F5D194F83C006C
:1007F00001286FD0012084F83C0020680168C907F7
:1008000003D1016841F0010101602068016821F411
:1008100000610160222084F83D00402084F83E0001
:1008200025646762A4F82A90608D20857248E06292
:10083000CDE9008653465A462046049900F0D2FE80
:1008400000287DD1208DDFF8B491202768B10128E0
:1008500014D00228206801681ED041F48061016034
:100860002068416980690090B6E02068416981692B
:100870000091016841F400710160ADE020680168F9
:1008800021F48061016072B620684169816900913C
:10089000016841F400710AE041F40061016072B640
:1008A0002068416981690091016821F480610160DB
:1008B00062B691E0032868D801280CD0022843468C
:1008C0004FF000024946204600960FD000F088FF06
:1008D000B0BB10E08BE032464146204601F026F8DE
:1008E00070BB20680069616A08706CE000F078FFF6
:1008F00030BB72B634E02068016821F48061016089
:1009000072B620680069616A0870606A401C6062A3
:10091000208D401E2085608D401E6085384846F23F
:10092000A8110068B0FBF1F0C0EBC00000EB800044
:100930000090401E009008D020684069C04300E04D
:1009400029E040070CD50098F3E744F8305F67735F
:10095000A573206940F02000206162B625731AE07B
:100960002068016841F40071016020680069616AD3
:100970000870606A401C6062218D491E2185618D6E
:10098000491E618562B621681BE032464146204619
:1009900000F0CCFF18B1012007B0BDE8F08F20684F
:1009A0000069616A0870606A401C6062218D491E9E
:1009B0002185618D491E618521684A69D2435207AC
:1009C0000AD409690170606A401C6062208D401E73
:1009D0002085608D401E6085208D00287FF46AAFE1
:1009E00084F83D7084F83E5084F83C50D4E70220EF
:1009F000D2E70000020010000000FFFF0400010029
:100A00001C0000202DE9FF4F83B09A46DDE91197C5
:100A100093460446DDF84080FFF7FEFD054694F856
:100A20003D0020287FD1192301224049204600950E
:100A300000F0D6FE002876D194F83C00012872D050
:100A4000012084F83C0020680168C90703D10168CF
:100A500041F0010101602068016821F4006101603A
:100A6000212084F83D00402084F83E0000262664C2
:100A7000C4F82480A4F82A90608D20852C48E06278
:100A8000CDE9007553465A462046049900F028FEE9
:100A900070B930E02A463946204600F07FFF58B151
:100AA000206C042804D12068016841F400710160C1
:100AB000012007B0BDE8F08F606A21680078086106
:100AC000606A401C6062218D491E89B22185628D59
:100AD000521E628522685369DB435B070BD469B100
:100AE00000781061606A401C6062208D401E208585
:100AF000608D401E6085208D0028CBD12A46394666
:100B0000204600F041FE0028CAD154F83D0B016890
:100B100041F400710160202004F81E09E677667731
:100B20000020C6E7FFE70220C3E700000200100034
:100B30000000FFFF10B586B00021009101910291E5
:100B4000039100680F4988421AD10F4CA06940F008
:100B50000800A061A069694600F008000490C02068
:100B6000009012200190032003900848FFF75EFCDC
:100B7000E06940F40010E061E06900F400100490C6
:100B800006B010BD0054004000100240000C0140AF
:100B9000024881680278114481607047100000208B
:100BA000074810B5016841F010010160032000F012
:100BB00075F80F2000F006F800F024F8002010BDB2
:100BC0000020024070B50D4D04464FF47A7128782C
:100BD000B1FBF0F00A490968B1FBF0F000F0DCFA73
:100BE00048B9102C07D200222146501E00F036F8DA
:100BF00000206C6070BD012070BD0000100000205E
:100C00001C0000200C4808B5816941F00101816198
:100C1000816901F001010091C16941F08051C16118
:100C2000C06900F0805000900448416821F0E06104
:100C300041F00071416008BD001002400000014019
:100C4000002809DB00F01F020121914040098000CB
:100C500000F1E020C0F8001170470000F0B40E4B26
:100C60001B680C46C3F30223C3F10705042D00D90A
:100C70000425191D072901D2002300E0DB1E0126EF
:100C800006FA05F1491E214099409E40761E164005
:100C90003143F0BC01F096B80CED00E0064900F0DD
:100CA000070208684FF6FF03184040EA0220034A93
:100CB00010430860704700000CED00E00000FA05EA
:100CC0002DE9F0470F46050061D0434E306800F033
:100CD0000700B84209D2306820F00700384330607E
:100CE000306800F00700B84251D128683B4C8107BA
:100CF00012D5400703D5606840F4E0606060287852
:100D0000000703D5606840F4605060606068A968BF
:100D100020F0F000084360602878C00728D0686899
:100D2000012810D02168022810D0890700292EDA66
:100D3000616821F0030101436160FFF76DFC8046AB
:100D400041F288390DE021688903EFE78901EDE779
:100D5000FFF762FCA0EB0801494502D90320BDE87A
:100D6000F0876068696800F00C00B0EB810FEFD18C
:100D7000306800F00700B8420BD9306820F0070057
:100D800038433060306800F00700B84201D00120DD
:100D9000E5E72878400705D56068E96820F4E06059
:100DA000084360602878000706D56068296920F448
:100DB000605040EAC100606000F038F86168084A9D
:100DC000C1F30311515CC840064908600648006839
:100DD000FFF7F8FE0020C2E70020024000100240AA
:100DE000FC2800081C0000201400002004480549CD
:100DF00000684968044AC1F30221515CC840704749
:100E00001C000020001002400C290008044805497D
:100E100000684968044AC1F3C221515CC840704768
:100E20001C000020001002400C2900080E4A5168E6
:100E30000E4801F00C03042B11D0082B0FD10C48E5
:100E4000C1F38343C903C05C0AD55168084AC1F3A2
:100E50004041921E515C054A5043B0FBF1F070478F
:100E600004494843704700000010024000127A0015
:100E7000EC28000800093D002DE9F84F040070D06F
:100E80002078C04DC00749D06868C0F381000128B0
:100E900007D06868C0F38100022809D16868C003E0
:100EA00006D52868800339D560680028E7D035E08A
:100EB0006068B0F5803F0BD010B1B0F5A02F11D015
:100EC000286820F480302860286820F4802002E020
:100ED000286840F480302860606890B1FFF79CFB80
:100EE00006460AE0286840F480202860F0E700BF4A
:100EF000FFF792FB801B642873D828688003F7D51E
:100F00000CE0FFF789FB064605E000BFFFF784FB16
:100F1000801B6428F0D828688003F7D420789A4E84
:100F200080074FF001094FF0000839D5686810F0CC
:100F30000C0F07D06868C0F38100022809D16868E7
:100F4000C00306D42868800714D52069012808D179
:100F500010E02069B0B1C6F80090FFF75DFB0746CE
:100F600005E00AE1FFF758FBC01B0228C4D8286837
:100F70008007F7D52868616920F0F80040EAC100D1
:100F800028600DE0C6F80080FFF746FB074604E046
:100F9000FFF742FBC01B022823D828688007F7D43C
:100FA000207800072CD57948A169D9B1C0F8009004
:100FB000FFF732FB074604E0FFF72EFBC01B0228B9
:100FC0000FD8686A8007F7D571484FF4FA51006866
:100FD000B0FBF1F0009000BF0098411E0091FAD2E2
:100FE0000EE080E0C0F80080FFF716FB074604E043
:100FF000FFF712FBC01B022875D8686A8007F7D478
:101000002078400760D5E8690027C00008D4E86967
:1010100040F08050E861E869012700F080500090BE
:101020005C480168C90513D40168834641F48071A6
:101030000160FFF7F1FA824606E000BFFFF7ECFA25
:10104000A0EB0A0064284ED8DBF80000C005F5D5F7
:10105000E06801280AD008B1052813D0286A20F0DA
:1010600001002862286A20F0040002E0286A40F0AB
:1010700001002862E06841F2883B98B1FFF7CCFAA2
:1010800082460BE0286A40F004002862EEE700BFC9
:10109000FFF7C2FAA0EB0A0159455AD8286A80071F
:1010A000F6D50CE0FFF7B8FA824605E0FFF7B4FA90
:1010B000A0EB0A0159454CD8286A8007F6D41FB125
:1010C000E86920F08050E861E06988B36968C1F39D
:1010D0008101022944D00228C6F8608004D0FFF7BD
:1010E0009BFA044638E034E0FFF796FA074604E03E
:1010F000FFF792FAC01B02282BD828688001F7D48A
:10110000206AB0F5803F05D16868A16820F40030FE
:1011100008436860D4E908010843696821F4741140
:1011200008436860C6F86090FFF776FA044606E068
:1011300025E000BFFFF770FA001B022809D82868D5
:101140008001F7D51BE000BFFFF766FA001B0228FD
:1011500002D90320BDE8F88F28688001F4D40EE09E
:101160000128F7D06868226A00F48031914204D1E6
:10117000616A00F47010884201D00120EAE7002083
:10118000E8E70000001002400000424280044242B2
:101190001C0000200070004010B5401EB0F1807FA0
:1011A00001D3012010BD4FF0E02460610F216017D2
:1011B00000F008FE0020A06107202061002010BD83
:1011C00070477047F8B5016804460868CA684B69FB
:1011D00010F00F0F4FF000055AD003F0010602F493
:1011E0009077374365D0C10705D0D10503D5616C31
:1011F00041F001016164410705D5D90703D0616C55
:1012000041F002016164810705D5D90703D0616C03
:1012100041F004016164010707D502F02001314368
:1012200003D0616C41F008016164616C00293BD01E
:10123000800604D5900602D5204600F0B2FC206856
:101240004069616CC0F3801001F008010143204641
:101250002BD000F07FFC20684069400621D5206833
:10126000143050E8001F21F0400140E80012002A2D
:10127000F5D1E06BA8B16D494163E06BFFF77CF8F5
:10128000002811D0E06B416B01B0BDE8F040084789
:1012900083060ED593060CD52046BDE8F84000F035
:1012A00080BC2046FFF78DFFF8BDFFF78AFF65641D
:1012B000F8BD266B2023012E7CD1C6067AD5D60632
:1012C00078D508684868009048694FF002064006E3
:1012D00040D5E16B086840680004000CE8D0A28D9E
:1012E0008242E5D9E085886920282DD020680C301D
:1012F00050E8001F21F4807140E80012002AF5D167
:101300002168143151E8000F20F0010041E800028B
:10131000002AF5D12068143050E8001F21F0400168
:1013200040E80012002AF5D184F842302563206895
:101330000C3050E8001F21F0100140E80012002A94
:10134000F5D1E06BFEF7F5FF6663A08DE18D401AE5
:1013500081B22AE0A08DE18D401A81B2E08D002893
:10136000A6D00029A4D022680C3252E8000F20F445
:10137000907042E80007002FF5D12068143050E843
:10138000002F22F0010240E80027002FF5D184F859
:101390004230256320680C3050E8002F22F0100204
:1013A00040E80023002BF5D166632046FFF708FFD5
:1013B000F8BDFFE705062BD5150629D594F84100A1
:1013C0002128F5D1A068B0F5805F01D12069B0B1C6
:1013D000206A411C2162216800784860E08C401E30
:1013E0000004000CE084E3D12068C16821F0800192
:1013F000C1602068C16841F04001C160D8E7206A3F
:101400000088C0F308004860206A801C2062E5E77D
:101410004006CDD55006CBD5CA68204622F0400202
:10142000CA6084F8413000F0C3F8C1E7451B0008EA
:1014300070B5040004D094F84100002510B106E016
:10144000012070BD84F84050204600F023F824208D
:1014500084F841002068C16821F40051C160204631
:1014600000F000FC2068016921F4904101612068CE
:10147000416921F02A0141612068C16841F40051AD
:10148000C1606564202084F8410084F842006563EF
:10149000002070BD30B585B0002400940194029402
:1014A00003940068184988422CD11848816941F496
:1014B00080418161816901F480410491816941F039
:1014C000040181618069124D00F0040004904FF422
:1014D0000070009002200190032003906946284686
:1014E000FEF7A4FF2815CDE90004694628460294BA
:1014F000FEF79CFF002211462520FFF7AFFB2520B9
:10150000FFF79EFB05B030BD0038014000100240DF
:101510000008014070472DE9F843044690F8410067
:101520001F4616460D46202802D00220BDE8F8834B
:101530007DB176B100206064212084F84100FFF77E
:101540006BF8A6848046E684A068B0F5805F02D080
:1015500003E00120EAE7206910B12E4600250EE0E5
:1015600000260CE08021204600F0D8FBA0B9AEB1E7
:1015700016F8010B21684860E08C401EE084E08C86
:1015800043464FF0000200970028EBD14FF0400196
:10159000204600F0C3FB30B10320C7E735F8020B4B
:1015A000C0F30800E6E7202084F841000020BDE7F2
:1015B0007047FEE701684A69D24352050FD46FF4C1
:1015C00080624A61002140F8301F202242738173FB
:1015D000026942F004020261017301207047002099
:1015E000704700002DE9F84F0446006889460B9DBE
:1015F00001689846174641F48061016020680168DF
:1016000041F48071016000954FF0011B00225946A2
:1016100020460A9B00F0E4F84FF4007A40B12068BD
:101620000068C00501D5C4F840A00320BDE8F88FCC
:10163000216809F0FE0008612B46284920460A9AD5
:1016400000F016F9F0BB20684169806900902A46D5
:1016500020460A9900F0A2F940B1206C04283AD142
:101660002068016841F40071016034E0FEB2B8F115
:10167000010F09D02168380A08612A4620460A99D4
:1016800000F08CF90028E8D1206806612A4620463F
:101690000A9900F083F90028DFD12068016841F43D
:1016A0008071016000950022594620460A9B00F097
:1016B00097F80028B3D1216809F0FF0040F001003D
:1016C000086100E007E02B46044920460A9A00F032
:1016D000CFF80028AAD00120A8E7000002000100EE
:1016E0002DE9F843044600680D46DDE908970168D6
:1016F0009846164641F4807101604B4600224FF037
:1017000001112046009700F06BF848B1206800688E
:10171000C00502D54FF4007020640320BDE8F883B3
:10172000216805F0FE0008613B464A4615492046FF
:1017300000F09EF888B920684169806900903A46B7
:101740004946204600F02AF948B1206C042804D10B
:101750002068016841F4007101600120DEE7F5B204
:10176000B8F1010F09D02168300A08613A464946AC
:10177000204600F013F90028E7D120680561002019
:10178000CCE700000200010070B516460D46044685
:101790001EE02046FFF70EFF08B1012070BD681C57
:1017A00016D0FEF739FF801BA84200D885B9206803
:1017B0004069C04340070BD5002044F8300F20217A
:1017C0006173A073216941F0200121612073E4E776
:1017D00020684069C0434007DBD4002070BD000092
:1017E0002DE9F047984617460D460446C1F30746D3
:1017F000DDF820902AE000BFB8F1FF3F26D0FEF7C9
:101800000BFFA0EB0901414502D8B8F1000F1DD133
:101810002068012E16D0806925EA00000004000C23
:1018200012D00020B84211D1002044F8300F2021FE
:101830006173A073216941F02001216120730120AF
:10184000BDE8F0874069E7E70120EBE72068012E5B
:101850000AD0806925EA00000004000C06D00020B0
:10186000B842C9D00020EBE74069F3E70120F7E771
:101870002DE9F047984616460D4604464FF00009FC
:101880004FF0200AC1F3074723E020684069C043B6
:10189000400515D42068016841F400710160216899
:1018A0006FF480604861C4F8309084F83DA084F8FB
:1018B0003E90216C41F00401216484F83C9021E0C9
:1018C000701C06D0FEF7A8FEA0EB0800B04203D8BB
:1018D00016B1012F1FD021E02068012F15D080699B
:1018E00025EA00000004000C18D000BF44F8309F27
:1018F00084F80DA084F80E90216941F02001216147
:1019000084F80C900120BDE8F087406925EA0000CA
:101910000004000CEAD12068406901E02068806979
:1019200025EA00000004000CAFD1ECE72DE9F041FE
:10193000002590460E460446202728E04069C04313
:10194000C0060CD454F8301B6FF01000486144F806
:1019500010596777A577206A2062257714E0FEF793
:101960005BFEA0EB0800B04200D886B92068406951
:10197000C04340060BD544F8305F6773A5732069F8
:1019800040F02000206125730120BDE8F08120682F
:101990004169C9434906D1D40020F6E770B516461F
:1019A0000D4604461EE02046FFF704FE08B1012064
:1019B00070BD681C16D0FEF72FFE801BA84200D811
:1019C00085B920684069C04300060BD5002044F863
:1019D000300F20216173A073216941F02001216142
:1019E0002073E4E720684069C0430006DBD4002090
:1019F00070BD000000B585B00020039015488169D6
:101A000041F020018161816901F020010491816927
:101A100041F008018161816901F008010491816947
:101A200041F00401816180690B4900F004000490D9
:101A30000120CDE90001029069460848FEF7F6FC56
:101A4000002211460620FFF709F90620FFF7F8F8F3
:101A500005B000BD0010024000002110000C014044
:101A60000D4810B50B4901600C49416000214FF44D
:101A700080428160C0E9031241618161C1610162FC
:101A8000FEF7D4FD002803D0BDE81040FEF74FBCA0
:101A900010BD000000540040C40F0020A0860100CB
:101AA0000C4810B50A4901604FF4E1314160002152
:101AB00081600C22C160C0E904128161C161FFF73D
:101AC000B7FC002803D0BDE81040FEF730BC10BDC5
:101AD0000038014018100020FEE7FEE7704770470D
:101AE000FFF756B830B58FB028216846FEF721FBC6
:101AF00014210AA8FEF71DFB01210804CDE90010FE
:101B00000024029402250491CDE907504FF4E0101F
:101B100009906846FFF7B0F908B172B6FEE70F20EA
:101B2000CDE90A054FF48060CDE90C4002210AA8F6
:101B30000E94FFF7C5F8002801D072B6FEE70FB08B
:101B400030BD704710B5406A0021C185C184FFF7E0
:101B500038FB10BD01680C3151E8002F22F490725F
:101B600041E80023002BF5D10168143151E8002F22
:101B700022F0010241E80023002BF5D1016B01297D
:101B800009D101680C3151E8002F22F0100241E820
:101B90000023002BF5D1202180F8421000210163A1
:101BA000704708B590F84210222901D0022008BDE4
:101BB00082684FF480539A4201D1016921B1816A50
:101BC0009A421BD04AB10AE00268816A5268C2F3A5
:101BD00008020A80816A891C08E0026972B1026801
:101BE000526802F07F020A70816A491C8162C18DCD
:101BF000491E0904090CC18503D01BE00268526824
:101C0000F1E70168CA6822F02002CA600168CA6868
:101C100022F48072CA6001684A6922F001024A61B6
:101C2000202180F8421000214163026B012A03D079
:101C3000FFF770FC002008BD016301680C3151E81A
:101C4000002F22F0100241E80023002BF5D101689B
:101C50000A68D20602D50A6849680091818DFFF7AB
:101C6000AFFAE7E770B5044600680169E26821F45D
:101C70004051114301612169A0680843616908432B
:101C80002168CA6841F20C639A430243CA60206823
:101C90004169A26921F44071114341611E492068E4
:101CA000884202D1FFF7B2F801E0FFF79FF800EB9E
:101CB000C00101EB0012606864218000B2FBF0F308
:101CC000B3FBF1F36FF018067343B2FBF0F5B2FB10
:101CD000F0F605EB8305322303EB0515B5FBF1F5B3
:101CE000B6FBF1F605F0F00505EB0615B2FBF0F6D4
:101CF000B2FBF0F0B0FBF1F06FF01802504306EBCE
:101D0000800003EB0010B0FBF1F0216800F00F0041
:101D10002844886070BD0000003801402DE9F04182
:101D2000984617460E460446069D27E0681C25D0B7
:101D30002DB1FEF771FCA0EB0800A8421ED9206867
:101D40000C3050E8001F21F4D07140E80012002A46
:101D5000F5D12068143050E8001F21F0010140E85F
:101D60000012002AF5D1202084F8410084F84200B6
:101D7000002084F840000320BDE8F081206800685E
:101D800036EA000004D00020B842CFD00020F3E7AC
:101D90000120F9E70148FFF715BA000018100020EC
:101DA000FEE700000FB4054B10B503A9044A0298E2
:101DB00000F028F810BC5DF814FB0000591F000863
:101DC000200000200907090E002804DB00F1E020B4
:101DD00080F80014704700F00F0000F1E02080F858
:101DE000141D704702E008C8121F08C1002AFAD16A
:101DF00070477047002001E001C1121F002AFBD18B
:101E0000704700002DE9FF4F89B09B46044600252E
:101E100006E025280BD05A460B999047641C6D1C90
:101E200020780028F5D10DB02846BDE8F08F0027B6
:101E3000B8460122474900E0074314F8013F203B20
:101E400002FA03F00842F7D120782E2819D114F8AD
:101E5000010F47F004072A280ED06FF02F022078D8
:101E6000A0F1300109290CD808EB880102EB4101EF
:101E700000EB0108641CF2E70A98641C50F8048B1C
:101E80000A9020780028CED0642808D0692806D08F
:101E900075281ED05A460B9990476D1C58E00A9938
:101EA0004FF00A0901C90A91002802DA40422D21A7
:101EB00002E0390504D52B218DF82010012103E023
:101EC000F90704D02021F7E78A4608AE0DE000218B
:101ED000FAE70A994FF00A0901C90A91F7E749465A
:101EE000FEF7C0F9303106F8011D0028F7D1ADEB3F
:101EF000060000F12009780701D44FF00108C84519
:101F000002DDA8EB090000E000208046002706E083
:101F100008A85A46C05D0B9990476D1C7F1C574519
:101F2000F6DB04E030205A460B9990476D1CB8F15F
:101F30000001A8F10108F5DC05E016F8010B5A468E
:101F40000B9990476D1CB9F10001A9F10109F4DC6E
:101F5000641C65E70928010013B54FF6FF730122E1
:101F600069460248FFF7D7FA00981CBD18100020F8
:101F70000EB5FEF715FEFFF7B5FDFFF73BFDFFF7CA
:101F80006FFDFFF78DFD00F0EBFB7A49002000F0BC
:101F9000D1FB00F03DFB78A0FFF704FFDFF8D48110
:101FA0004FF4FA70A8F102080026C8F80400764D34
:101FB000374676A0FFF7F6FEDFF8DCA100240AF52D
:101FC000FA6924E001217548FEF720FB0128F9D0C9
:101FD0000AEB840109EB840000F060FB59F824004F
:101FE000A84200D20546B84200D907466CA0FFF7C8
:101FF000D9FE59F824106CA0FFF7D4FE6BA0FFF7B0
:10200000D1FE5AF824106BA0FFF7CCFE641CD8F860
:1020100004008442D6DB4C4668A0FFF7C3FE554A55
:10202000521E02F10B01501E8DE807000B1F416884
:10203000654A594800F00CF964A0FFF7B3FED34697
:10204000A246514C002564205B46524602EB8007B5
:1020500052F82010A7F5805703EB800CC7F8701ECC
:10206000ACF5805C53F82070CCF8707EA14200D2B1
:102070000C46A94200D90D46401CB0F5FA7FE5DBBD
:102080004FF4C8770AEB870959F8048C01214348BB
:10209000FEF7BCFA0128F9D00BEB8701484600F0A7
:1020A000FDFA5AF82700404514D9A0EB0800FEF7C6
:1020B000BBF88046281BFEF7B7F801464046FEF7FE
:1020C00075F84649FEF740F8FEF7B3F8361A16D50C
:1020D000002614E0A8EB0000FEF7A6F88046281BB7
:1020E000FEF7A2F801464046FEF760F83B49FEF7CE
:1020F0002BF8FEF79EF80644FF2E00DDFF2628A0F1
:10210000FFF750FE5AF8271027A0FFF74BFE27A035
:10211000FFF748FE5BF8271023A0FFF743FEDFF828
:1021200054802FA0A8F10208D8F80C10FFF73AFE4F
:1021300098F901102DA0FFF735FE30A0D8F808104F
:10214000FFF730FE98F900102FA0FFF72BFE7F1C41
:10215000B7F5FA7F96DB08F1010202F10B01501E80
:102160008DE807000B1F4168174A0B4800F070F814
:1021700067E7000002000020B3F5CABCBBAFCDEAA0
:10218000B3C9200D0A000000FFFF0300BDF8C8EB33
:10219000D1ADBBB7200D0A0024000020000C014087
:1021A0007265643D00000000256900002C20697202
:1021B0003D0000002569200D0A000000D1ADBBB72D
:1021C000CDEAB3C9200D0A00F4070020BFAACABC9B
:1021D000D6F7D1ADBBB7200D0A00000000007F4349
:1021E0002C2048523D25692C200000004852766181
:1021F0006C69643D25692C200000000053704F324B
:102200003D25692C2000000053504F3256616C6907
:10221000643D25690A0D0A0D000000002DE9F84112
:102220008046DDE90706009017460C46099D4046AA
:1022300000F0B8FA33463A462146404600F0E8FA44
:102240002068A84200DB28462060BDE8F881000035
:102250002DE9FF4FBFB00E4600211C4608464C9D9D
:1022600004E03F9A52F82020401C1144B042F8DBB1
:10227000B1FBF6F20020E14906E03F9B53F8203025
:102280009B1A41F82030401CB042F6DB00204FF48E
:10229000F87C00BF01EB800251F820305768E3461C
:1022A0003B44D2E902723A441A44D31702EB9372C8
:1022B000921041F82020401C5845EBDBD04A00200A
:1022C0004FF4F77301EB800751F820C07F6889460F
:1022D000A7EB0C0742F82070401C9842F2DD00206A
:1022E00002EB800752F820107F689A46394401EBD0
:1022F000D171491042F82010401C5045F0DBC14F0D
:102300000020964600230146421D08E0A1EB00088C
:102310005EF821C037F81880491C0CFB1833914235
:10232000F4DB40F27A4193FBF1F14EF82010401CAF
:102330007246B0F5F47FE5DD002318464FEA0A0740
:1023400052F82010002900DC4942401C0B44504543
:10235000F6DD40F2EF1093FBF0F10823CDE9001316
:10236000052202920346A64A3DA912A8FFF756FF8E
:1023700000223D9B12A99646022B1ADB012009E0A0
:1023800001EB800C51F820705CF804CC401CA7EBEA
:102390000C073A449842F3DB581E92FBF0F041F2EE
:1023A000707292FBF0F24D9802604E9A012010700C
:1023B00005E04D9A944810604E9A82F800E00020A3
:1023C00007E000BF51F8202021AF921C47F82020E1
:1023D000401C9842F6DB0020C8460BE03F9951F8BC
:1023E000201048F82010419951F82020874941F8E1
:1023F0002020401CB042F1DB0022164628E000BF3E
:1024000021A84FF0010950F826004FF08077411DB8
:1024100051451CDCA0F1050CBCF1000F17DD401F7D
:102420000FE000BF58F820C0BC4509DAB9F1000F31
:1024300001D04FF0000967460DF10C0C4CF8260056
:10244000401C8842EEDBB9F1000F00D1521C761C13
:102450009E42D5DB022A06DA6B48206085F800E050
:1024600043B0BDE8F08FDFF8A4C1002008EB800185
:1024700058F820304E68E1463344D1E902613144D6
:102480001944CB1701EB9371891048F820100CEB1D
:1024900080035CF820605F683E44D3E902733B44EC
:1024A0003344DE1703EB96739B104CF82030401C2E
:1024B0005845DBDB00200DF1E00B3E9000214BF88E
:1024C0002010401C0528F9DB00204FF4FA7309E0C6
:1024D00003A951F82010994203DD4B4820600020E9
:1024E00089E0401C9042F3DB0023A2F1010A60E086
:1024F00003A800EB830650F823E076684FF07F4294
:10250000A6EB0E00114630900A2851DD7046CC46ED
:102510000DE000BF58F820708F4201DD394633903E
:102520005CF82070974201DD3A463290401C8642AA
:10253000F0DC59F826C059F82E000190ACEB0000F1
:10254000DDF8C8C0ACEB0E077843309F90FBF7F77F
:10255000019807EB000C329F59F82770A7EB0C0786
:10256000029758F8260058F82E60DDF8CCC0801B82
:10257000ACEB0E077843309F90FBF7F03044329E6F
:10258000029F58F826604F43301A5043F911C0118A
:1025900000280DDD3E9A052A0ADA49B1642251432A
:1025A00091FBF0F23E984BF820203E98401C3E9064
:1025B0005B1C53459CDB58463E9900F05FF93E9802
:1025C00000EBD070401001280ADD0BEB80025BF8B5
:1025D000200052F8042C104400EBD070401001E0B1
:1025E0005BF82000C11EB529BFF477AF05493E3125
:1025F000085C20600120287032E7000020180020CD
:10260000601000201429000819FCFFFFF01F0020B3
:1026100010B5C021022000F0ADF800283CD0002108
:10262000032000F0A7F8002836D00021042000F095
:10263000A1F8002830D00021052000F09BF80028E8
:102640002AD00021062000F095F8002824D00F2180
:10265000082000F08FF800281ED00321092000F088
:1026600089F8002818D027210A2000F083F80028D4
:1026700012D024210C2000F07DF800280CD0242159
:102680000D2000F077F8002806D07F21102000F000
:1026900071F8002800D0012010BD000030B50546BB
:1026A00087B0002028600C46086005A900F042F8B9
:1026B00005A9012000F03EF807208DF80C001C4809
:1026C000FDF7B0FF4FF0FF32062103A88DE80700A9
:1026D00001230722AF211648FEF76CF89DF80C0085
:1026E000296801EB004028609DF80D1000EB0120E7
:1026F00028609DF80E10084428609DF80F0021689E
:1027000001EB004020609DF8101000EB01202060DC
:102710009DF81110084420602868C0F3110028605B
:102720002068C0F31100206007B0012030BD000018
:10273000C40F00203EB504460D460848FDF772FF61
:1027400001214FF0FF300095CDE901100B462246E4
:10275000AF210248FEF72EF801203EBDC40F002035
:1027600010B54021092000F005F8002800D0012014
:1027700010BD000013B5044684B00948FDF752FFB0
:1027800001214FF0FF3205A88DE807000B462246D5
:10279000AE210348FEF736F906B0012010BD000057
:1027A000C40F00202DE9F043814600240120DDF80C
:1027B0001C805E1E0C6026E052F82070474521DD2B
:1027C00002EB800454F8044CA7421BDD012500E015
:1027D0006D1C44199C4203DA52F824C06745F7D0B7
:1027E000054452F82550AF420ADD0D680F2D07DA77
:1027F0004FEA850C6D1C0D6049F80C00601C02E06E
:10280000204600E0401CB042D6DBBDE8F08300006B
:102810002DE9F0431E4613460C460A68054601465C
:10282000184600F045F84FF0FF3840461CE00A46D5
:10283000411CC6F10009216013E000BF55F821706A
:10284000431C19D055F82030FB1AB34201DC4B452C
:1028500006DA23684FEA830C5B1C236045F80C7092
:10286000491C9142EADB401C21688142DFDC28469A
:10287000BDE8F04300F002B84346E5E730B5012378
:1028800012E000BF50F823401A4602E040F8225000
:10289000521E002A05DD00EB820555F8045CA542B6
:1028A000F4DC40F822405B1C8B42EBDB30BD0000C7
:1028B000F0B5012416E000BF51F82450234602E091
:1028C00041F823605B1E002B09DD01EB830650F805
:1028D000257056F8046C50F826C06745F0DC41F8C6
:1028E0002350641C9442E7DBF0BD0102020304059F
:1028F000060708090A0B0C0D0E0F1010000000004F
:10290000000000000102030406070809000000009F
:10291000010203042900140100021401290000002F
:1029200000000000000000000000000000000000A7
:102930000000000000000000000000000000000097
:102940000000000000000000000000000000000087
:1029500000005F5F5F60606061616161616262622F
:102960006262636363636363636364646464646433
:102970006464646464646464646464646464636319
:102980006363636363636262626262626161616125
:10299000606060605F5F5F5E5E5E5D5D5D5C5C5C55
:1029A0005B5B5A5A595959585857575656555554AA
:1029B00054535252515150504F4E4E4D4C4C4B4A25
:1029C0004A494848474645454443424241403F3EC4
:1029D0003E3D3C3B3A393838373635343332313086
:1029E0002F2E2D2C2B2A2928272625242322211F70
:1029F0001E1D1C1B1A19171615141311100F0E0C7F
:102A00000B0A090706050302010000002C2A000832
:102A10000000002024000000E41D0008502A0008E7
:102A2000240000209C2B0000F41D00080000000082
:102A30000000000000000000000000000100000095
:102A400010000000000000000024F400000000005E
:04000005080000ED02
:00000001FF
